{
    "_format": "hh-sol-artifact-1",
    "contractName": "UniDept",
    "sourceName": "contracts/UniDept.sol",
    "abi": [
        {
            "inputs": [],
            "stateMutability": "nonpayable",
            "type": "constructor"
        },
        {
            "anonymous": false,
            "inputs": [
                {
                    "indexed": false,
                    "internalType": "uint256",
                    "name": "departmentId",
                    "type": "uint256"
                },
                {
                    "indexed": false,
                    "internalType": "string",
                    "name": "name",
                    "type": "string"
                },
                {
                    "indexed": false,
                    "internalType": "string",
                    "name": "hodName",
                    "type": "string"
                },
                {
                    "indexed": false,
                    "internalType": "uint256",
                    "name": "numberOfProfessors",
                    "type": "uint256"
                },
                {
                    "indexed": false,
                    "internalType": "uint256",
                    "name": "numberOfAssociateProfessors",
                    "type": "uint256"
                },
                {
                    "indexed": false,
                    "internalType": "string",
                    "name": "teachers",
                    "type": "string"
                },
                {
                    "indexed": false,
                    "internalType": "uint256",
                    "name": "numberOfLabs",
                    "type": "uint256"
                },
                {
                    "indexed": false,
                    "internalType": "uint256",
                    "name": "numberOfClassrooms",
                    "type": "uint256"
                },
                {
                    "indexed": false,
                    "internalType": "uint256",
                    "name": "totalNumberOfStudents",
                    "type": "uint256"
                },
                {
                    "indexed": false,
                    "internalType": "uint256",
                    "name": "numberOfCoursesOffered",
                    "type": "uint256"
                }
            ],
            "name": "DepartmentAdded",
            "type": "event"
        },
        {
            "inputs": [
                {
                    "internalType": "string",
                    "name": "name",
                    "type": "string"
                },
                {
                    "internalType": "string",
                    "name": "hodName",
                    "type": "string"
                },
                {
                    "internalType": "uint256",
                    "name": "numberOfProfessors",
                    "type": "uint256"
                },
                {
                    "internalType": "uint256",
                    "name": "numberOfAssociateProfessors",
                    "type": "uint256"
                },
                {
                    "internalType": "string",
                    "name": "teachers",
                    "type": "string"
                },
                {
                    "internalType": "uint256",
                    "name": "numberOfLabs",
                    "type": "uint256"
                },
                {
                    "internalType": "uint256",
                    "name": "numberOfClassrooms",
                    "type": "uint256"
                },
                {
                    "internalType": "uint256",
                    "name": "totalNumberOfStudents",
                    "type": "uint256"
                },
                {
                    "internalType": "uint256",
                    "name": "numberOfCoursesOffered",
                    "type": "uint256"
                }
            ],
            "name": "addDepartment",
            "outputs": [],
            "stateMutability": "nonpayable",
            "type": "function"
        },
        {
            "inputs": [
                {
                    "internalType": "uint256",
                    "name": "",
                    "type": "uint256"
                }
            ],
            "name": "departments",
            "outputs": [
                {
                    "internalType": "string",
                    "name": "name",
                    "type": "string"
                },
                {
                    "internalType": "string",
                    "name": "hodName",
                    "type": "string"
                },
                {
                    "internalType": "uint256",
                    "name": "numberOfProfessors",
                    "type": "uint256"
                },
                {
                    "internalType": "uint256",
                    "name": "numberOfAssociateProfessors",
                    "type": "uint256"
                },
                {
                    "internalType": "string",
                    "name": "teachers",
                    "type": "string"
                },
                {
                    "internalType": "uint256",
                    "name": "numberOfLabs",
                    "type": "uint256"
                },
                {
                    "internalType": "uint256",
                    "name": "numberOfClassrooms",
                    "type": "uint256"
                },
                {
                    "internalType": "uint256",
                    "name": "totalNumberOfStudents",
                    "type": "uint256"
                },
                {
                    "internalType": "uint256",
                    "name": "numberOfCoursesOffered",
                    "type": "uint256"
                }
            ],
            "stateMutability": "view",
            "type": "function"
        },
        {
            "inputs": [
                {
                    "internalType": "string",
                    "name": "departmentName",
                    "type": "string"
                }
            ],
            "name": "getDepartmentInfo",
            "outputs": [
                {
                    "internalType": "string",
                    "name": "name",
                    "type": "string"
                },
                {
                    "internalType": "string",
                    "name": "hodName",
                    "type": "string"
                },
                {
                    "internalType": "uint256",
                    "name": "numberOfProfessors",
                    "type": "uint256"
                },
                {
                    "internalType": "uint256",
                    "name": "numberOfAssociateProfessors",
                    "type": "uint256"
                },
                {
                    "internalType": "string",
                    "name": "teachers",
                    "type": "string"
                },
                {
                    "internalType": "uint256",
                    "name": "numberOfLabs",
                    "type": "uint256"
                },
                {
                    "internalType": "uint256",
                    "name": "numberOfClassrooms",
                    "type": "uint256"
                },
                {
                    "internalType": "uint256",
                    "name": "totalNumberOfStudents",
                    "type": "uint256"
                },
                {
                    "internalType": "uint256",
                    "name": "numberOfCoursesOffered",
                    "type": "uint256"
                }
            ],
            "stateMutability": "view",
            "type": "function"
        },
        {
            "inputs": [],
            "name": "totalDepartments",
            "outputs": [
                {
                    "internalType": "uint256",
                    "name": "",
                    "type": "uint256"
                }
            ],
            "stateMutability": "view",
            "type": "function"
        },
        {
            "inputs": [
                {
                    "internalType": "string",
                    "name": "departmentName",
                    "type": "string"
                },
                {
                    "internalType": "string",
                    "name": "newTeachers",
                    "type": "string"
                }
            ],
            "name": "updateTeachers",
            "outputs": [],
            "stateMutability": "nonpayable",
            "type": "function"
        }
    ],
    "bytecode": "0x608060405234801561001057600080fd5b5060006002819055506111be806100286000396000f3fe608060405234801561001057600080fd5b50600436106100575760003560e01c80635f881bd21461005c578063a1d5bd9014610078578063dce0158014610096578063eaeb60e3146100b2578063f3b67294146100ea575b600080fd5b6100766004803603810190610071919061096c565b610122565b005b61008061028b565b60405161008d9190610a99565b60405180910390f35b6100b060048036038101906100ab9190610ab4565b610291565b005b6100cc60048036038101906100c79190610b2c565b61031f565b6040516100e199989796959493929190610bd8565b60405180910390f35b61010460048036038101906100ff9190610c7a565b610505565b60405161011999989796959493929190610bd8565b60405180910390f35b6002600081548092919061013590610cf2565b91905055506040518061012001604052808a815260200189815260200188815260200187815260200186815260200185815260200184815260200183815260200182815250600080600254815260200190815260200160002060008201518160000190816101a39190610f46565b5060208201518160010190816101b99190610f46565b50604082015181600201556060820151816003015560808201518160040190816101e39190610f46565b5060a0820151816005015560c0820151816006015560e08201518160070155610100820151816008015590505060025460018a6040516102239190611054565b9081526020016040518091039020819055507f0112729fb86581c73529be41b625c709e9c3d961962c4104c6c1a091db0ea7866002548a8a8a8a8a8a8a8a8a6040516102789a9998979695949392919061106b565b60405180910390a1505050505050505050565b60025481565b60006001836040516102a39190611054565b9081526020016040518091039020549050600081036102f7576040517f08c379a00000000000000000000000000000000000000000000000000000000081526004016102ee90611168565b60405180910390fd5b8160008083815260200190815260200160002060040190816103199190610f46565b50505050565b600060205280600052604060002060009150905080600001805461034290610d69565b80601f016020809104026020016040519081016040528092919081815260200182805461036e90610d69565b80156103bb5780601f10610390576101008083540402835291602001916103bb565b820191906000526020600020905b81548152906001019060200180831161039e57829003601f168201915b5050505050908060010180546103d090610d69565b80601f01602080910402602001604051908101604052809291908181526020018280546103fc90610d69565b80156104495780601f1061041e57610100808354040283529160200191610449565b820191906000526020600020905b81548152906001019060200180831161042c57829003601f168201915b50505050509080600201549080600301549080600401805461046a90610d69565b80601f016020809104026020016040519081016040528092919081815260200182805461049690610d69565b80156104e35780601f106104b8576101008083540402835291602001916104e3565b820191906000526020600020905b8154815290600101906020018083116104c657829003601f168201915b5050505050908060050154908060060154908060070154908060080154905089565b6060806000806060600080600080600060018b6040516105259190611054565b908152602001604051809103902054905060008103610579576040517f08c379a000000000000000000000000000000000000000000000000000000000815260040161057090611168565b60405180910390fd5b6000806000838152602001908152602001600020604051806101200160405290816000820180546105a990610d69565b80601f01602080910402602001604051908101604052809291908181526020018280546105d590610d69565b80156106225780601f106105f757610100808354040283529160200191610622565b820191906000526020600020905b81548152906001019060200180831161060557829003601f168201915b5050505050815260200160018201805461063b90610d69565b80601f016020809104026020016040519081016040528092919081815260200182805461066790610d69565b80156106b45780601f10610689576101008083540402835291602001916106b4565b820191906000526020600020905b81548152906001019060200180831161069757829003601f168201915b5050505050815260200160028201548152602001600382015481526020016004820180546106e190610d69565b80601f016020809104026020016040519081016040528092919081815260200182805461070d90610d69565b801561075a5780601f1061072f5761010080835404028352916020019161075a565b820191906000526020600020905b81548152906001019060200180831161073d57829003601f168201915b505050505081526020016005820154815260200160068201548152602001600782015481526020016008820154815250509050806000015181602001518260400151836060015184608001518560a001518660c001518760e001518861010001519a509a509a509a509a509a509a509a509a5050509193959799909294969850565b6000604051905090565b600080fd5b600080fd5b600080fd5b600080fd5b6000601f19601f8301169050919050565b7f4e487b7100000000000000000000000000000000000000000000000000000000600052604160045260246000fd5b610843826107fa565b810181811067ffffffffffffffff821117156108625761086161080b565b5b80604052505050565b60006108756107dc565b9050610881828261083a565b919050565b600067ffffffffffffffff8211156108a1576108a061080b565b5b6108aa826107fa565b9050602081019050919050565b82818337600083830152505050565b60006108d96108d484610886565b61086b565b9050828152602081018484840111156108f5576108f46107f5565b5b6109008482856108b7565b509392505050565b600082601f83011261091d5761091c6107f0565b5b813561092d8482602086016108c6565b91505092915050565b6000819050919050565b61094981610936565b811461095457600080fd5b50565b60008135905061096681610940565b92915050565b60008060008060008060008060006101208a8c03121561098f5761098e6107e6565b5b60008a013567ffffffffffffffff8111156109ad576109ac6107eb565b5b6109b98c828d01610908565b99505060208a013567ffffffffffffffff8111156109da576109d96107eb565b5b6109e68c828d01610908565b98505060406109f78c828d01610957565b9750506060610a088c828d01610957565b96505060808a013567ffffffffffffffff811115610a2957610a286107eb565b5b610a358c828d01610908565b95505060a0610a468c828d01610957565b94505060c0610a578c828d01610957565b93505060e0610a688c828d01610957565b925050610100610a7a8c828d01610957565b9150509295985092959850929598565b610a9381610936565b82525050565b6000602082019050610aae6000830184610a8a565b92915050565b60008060408385031215610acb57610aca6107e6565b5b600083013567ffffffffffffffff811115610ae957610ae86107eb565b5b610af585828601610908565b925050602083013567ffffffffffffffff811115610b1657610b156107eb565b5b610b2285828601610908565b9150509250929050565b600060208284031215610b4257610b416107e6565b5b6000610b5084828501610957565b91505092915050565b600081519050919050565b600082825260208201905092915050565b60005b83811015610b93578082015181840152602081019050610b78565b60008484015250505050565b6000610baa82610b59565b610bb48185610b64565b9350610bc4818560208601610b75565b610bcd816107fa565b840191505092915050565b6000610120820190508181036000830152610bf3818c610b9f565b90508181036020830152610c07818b610b9f565b9050610c16604083018a610a8a565b610c236060830189610a8a565b8181036080830152610c358188610b9f565b9050610c4460a0830187610a8a565b610c5160c0830186610a8a565b610c5e60e0830185610a8a565b610c6c610100830184610a8a565b9a9950505050505050505050565b600060208284031215610c9057610c8f6107e6565b5b600082013567ffffffffffffffff811115610cae57610cad6107eb565b5b610cba84828501610908565b91505092915050565b7f4e487b7100000000000000000000000000000000000000000000000000000000600052601160045260246000fd5b6000610cfd82610936565b91507fffffffffffffffffffffffffffffffffffffffffffffffffffffffffffffffff8203610d2f57610d2e610cc3565b5b600182019050919050565b7f4e487b7100000000000000000000000000000000000000000000000000000000600052602260045260246000fd5b60006002820490506001821680610d8157607f821691505b602082108103610d9457610d93610d3a565b5b50919050565b60008190508160005260206000209050919050565b60006020601f8301049050919050565b600082821b905092915050565b600060088302610dfc7fffffffffffffffffffffffffffffffffffffffffffffffffffffffffffffffff82610dbf565b610e068683610dbf565b95508019841693508086168417925050509392505050565b6000819050919050565b6000610e43610e3e610e3984610936565b610e1e565b610936565b9050919050565b6000819050919050565b610e5d83610e28565b610e71610e6982610e4a565b848454610dcc565b825550505050565b600090565b610e86610e79565b610e91818484610e54565b505050565b5b81811015610eb557610eaa600082610e7e565b600181019050610e97565b5050565b601f821115610efa57610ecb81610d9a565b610ed484610daf565b81016020851015610ee3578190505b610ef7610eef85610daf565b830182610e96565b50505b505050565b600082821c905092915050565b6000610f1d60001984600802610eff565b1980831691505092915050565b6000610f368383610f0c565b9150826002028217905092915050565b610f4f82610b59565b67ffffffffffffffff811115610f6857610f6761080b565b5b610f728254610d69565b610f7d828285610eb9565b600060209050601f831160018114610fb05760008415610f9e578287015190505b610fa88582610f2a565b865550611010565b601f198416610fbe86610d9a565b60005b82811015610fe657848901518255600182019150602085019450602081019050610fc1565b868310156110035784890151610fff601f891682610f0c565b8355505b6001600288020188555050505b505050505050565b600081905092915050565b600061102e82610b59565b6110388185611018565b9350611048818560208601610b75565b80840191505092915050565b60006110608284611023565b915081905092915050565b600061014082019050611081600083018d610a8a565b8181036020830152611093818c610b9f565b905081810360408301526110a7818b610b9f565b90506110b6606083018a610a8a565b6110c36080830189610a8a565b81810360a08301526110d58188610b9f565b90506110e460c0830187610a8a565b6110f160e0830186610a8a565b6110ff610100830185610a8a565b61110d610120830184610a8a565b9b9a5050505050505050505050565b7f4465706172746d656e7420646f6573206e6f7420657869737400000000000000600082015250565b6000611152601983610b64565b915061115d8261111c565b602082019050919050565b6000602082019050818103600083015261118181611145565b905091905056fea26469706673582212209af7fe16436c2f00a25fa143090b46d6793a57a3c411a8fbd9304f0e7aae7b3e64736f6c63430008180033",
    "linkReferences": {},
    "deployedLinkReferences": {}
}